:100000000C9435000C945D000C945D000C945D0024
:100010000C945D000C945D000C945D000C945D00EC
:100020000C945D000C945D000C945D000C945D00DC
:100030000C945D000C945D000C945D000C945D00CC
:100040000C94E3010C945D000C9453020C942D026B
:100050000C945D000C945D000C945D000C945D00AC
:100060000C945D000C945D00640311241FBECFEF5F
:10007000D8E0DEBFCDBF12E0A0E0B1E0E0E1FDE0FE
:1000800002C005900D92AE31B107D9F726E0AEE17E
:10009000B2E001C01D92A83CB207E1F710E0C5E351
:1000A000D0E004C02197FE010E949103C433D10720
:1000B000C9F70E9485020C9486060C940000CF922A
:1000C000DF92EF92FF920F931F93CF93DF936C0118
:1000D0007A018B01C0E0D0E0CE15DF0581F0D801B8
:1000E0006D918D01D601ED91FC910190F081E02D93
:1000F000C6010995892B11F02196EECF7E01C7012B
:10010000DF91CF911F910F91FF90EF90DF90CF90F3
:100110000895089580E090E00895FC01538D448D8A
:10012000252F30E0842F90E0821B930B541710F0A2
:10013000CF96089501970895FC01918D828D9817AF
:1001400061F0828DDF01A80FB11D5D968C91928DBB
:100150009F5F9F73928F90E008958FEF9FEF0895B8
:10016000FC01918D828D981731F0828DE80FF11D81
:10017000858D90E008958FEF9FEF0895FC01918D9C
:10018000228D892F90E0805C9F4F821B91098F7395
:10019000992708958BE296E00E94BE0021E0892B0A
:1001A00009F420E0822F0895FC01848DDF01A80F5F
:1001B000B11DA35ABF4F2C91848D90E001968F738F
:1001C0009927848FA689B7892C93A089B1898C91AE
:1001D000837080648C93938D848D981306C00288FD
:1001E000F389E02D80818F7D80830895EF92FF92C7
:1001F0000F931F93CF93DF93EC0181E0888F9B8D4A
:100200008C8D981305C0E889F989808185FD26C009
:10021000F62E0B8D10E00F5F1F4F0F731127E02E8E
:100220008C8DE8120CC00FB607FCFACFE889F9896B
:10023000808185FFF5CFCE010E94D400F1CF8B8D58
:10024000FE01E80FF11DE35AFF4FF0829FB7F894CB
:100250000B8FEA89FB89808180620AC09FB7F8947E
:10026000EE89FF896083E889F989808183708064E1
:1002700080839FBF81E090E0DF91CF911F910F912C
:10028000FF90EF900895CF93DF93EC01888D882342
:10029000C9F0EA89FB89808185FD05C0A889B989F3
:1002A0008C9186FD0FC00FB607FCF5CF808185FFCE
:1002B000F2CFA889B9898C9185FFEDCFCE010E943C
:1002C000D400E7CFDF91CF91089580E090E0892BB3
:1002D00029F00E94CA0081110C9400000895009733
:1002E00069F0FC0101900020E9F73197AF01481B4C
:1002F000590BBC018BE296E00C945F0080E090E02B
:1003000008950E949703CF92DF92EF92FF921F937E
:10031000CF93DF93162FC8E0D0E084E1E82E82E08F
:10032000F82E90E2C92E92E0D92E80910001909192
:100330000101019691F41F921F93FF92EF92DF92B9
:10034000CF920E949C0380E292E00E946F010F9086
:100350000F900F900F900F900F908091000190914F
:100360000101019690930101809300011695219758
:10037000E1F68FEF9FEF9093010180930001809150
:100380001E0290911F02019690931F0280931E02FD
:1003900087709927892B79F48CE192E00E946F0194
:1003A0008AE192E0DF91CF911F91FF90EF90DF9073
:1003B000CF900C946F01DF91CF911F91FF90EF9040
:1003C000DF90CF9008951F920F920FB60F921124D5
:1003D0002F933F938F939F93AF93BF938091270663
:1003E00090912806A0912906B0912A063091260600
:1003F00023E0230F2D3720F40196A11DB11D05C068
:1004000026E8230F0296A11DB11D20932606809396
:10041000270690932806A0932906B0932A06809178
:10042000220690912306A0912406B09125060196FC
:10043000A11DB11D8093220690932306A09324064C
:10044000B0932506BF91AF919F918F913F912F91CE
:100450000F900FBE0F901F9018951F920F920FB61E
:100460000F9211242F933F934F935F936F937F933A
:100470008F939F93AF93BF93EF93FF938BE296E09D
:100480000E94D400FF91EF91BF91AF919F918F9106
:100490007F916F915F914F913F912F910F900FBE80
:1004A0000F901F9018951F920F920FB60F92112464
:1004B0002F938F939F93EF93FF93E0913B06F091DF
:1004C0003C068081E0914106F091420682FD12C017
:1004D0009081809144068F5F8F732091450682172B
:1004E00051F0E0914406F0E0E55DF94F958F80937F
:1004F000440601C08081FF91EF919F918F912F91D0
:100500000F900FBE0F901F901895789484B582605D
:1005100084BD84B5816084BD85B5826085BD85B5A7
:10052000816085BD80916E00816080936E00109225
:1005300081008091810082608093810080918100A0
:100540008160809381008091800081608093800031
:100550008091B10084608093B1008091B00081608F
:100560008093B00080917A00846080937A008091BB
:100570007A00826080937A0080917A008160809313
:100580007A0080917A00806880937A001092C1008E
:1005900080E0E4E1F1E0A2E2B2E001900D928A9500
:1005A000E1F780E0E4E1F1E0A2E2B3E001900D9236
:1005B0008A95E1F782E098E0909397038093960301
:1005C00020E0E4E1F1E0A2E2B4E001900D922A958E
:1005D000E1F79093A7048093A60420E0E4E1F1E022
:1005E000A2E2B5E001900D922A95E1F7909397056C
:1005F000809396059093A7058093A605E0913B060E
:10060000F0913C0682E08083E0913706F091380655
:100610001082E0913906F0913A061082109243065A
:10062000E0913F06F091400686E08083E0913D0630
:10063000F0913E06808180618083E0913D06F091DB
:100640003E06808188608083E0913D06F0913E0601
:10065000808180688083E0913D06F0913E06808134
:100660008F7D8083C0E0D0E09E012877332783E030
:10067000359527958A95E1F7CE0187709927FE0178
:10068000EE27F37044E0F695E7954A95E1F7E20F1F
:10069000F31F53E0EE0FFF1F5A95E1F7E80FF91F24
:1006A000EE0FFF1FEE5DFD4FC7FF02C0608101C06E
:1006B0006181CE010E9483012196C11584E0D80793
:1006C00099F60E946501FDCFEBE2F6E013821282FB
:1006D00088EE93E0A0E0B0E084839583A683B7839F
:1006E00086E091E09183808385EC90E09587848714
:1006F00084EC90E09787868780EC90E0918B808BEC
:1007000081EC90E0938B828B82EC90E0958B848BD4
:1007100086EC90E0978B868B118E128E138E148E42
:100720000895EE0FFF1F0590F491E02D099481E0EC
:1007300090E0F8940C948606AEE0B0E0E2EAF3E0D4
:100740000C945D060D891E8986E08C831A830983CB
:100750008FEF9FE79E838D83AE01475E5F4F6F896A
:10076000788DCE0101960E94BE03EF81F885E00FDF
:10077000F11F10822E96E4E00C947906ABE0B0E015
:10078000E4ECF3E00C944F066C017B018A01FC0160
:1007900017821682838181FFCCC1CE0101963C0174
:1007A000F6019381F70193FD859193FF81917F017C
:1007B000882309F4BAC1853239F493FD859193FFFA
:1007C00081917F01853229F4B60190E00E94B50540
:1007D000E7CF912C212C312CFFE1F315D8F08B328F
:1007E00079F038F4803279F08332A1F4232D20613E
:1007F0001DC08D3261F0803369F4232D216016C055
:10080000832D8260382EE32DE4603E2E2AC0F32D26
:10081000F8601DC037FC2DC020ED280F2A3040F0B5
:100820008E32B9F436FC81C1232D2064322E19C0DA
:1008300036FE06C08AE0989E200D1124922E11C02B
:10084000EAE02E9E200D1124222EF32DF0623F2E81
:1008500008C08C3621F4832D8068382E02C088367B
:1008600041F4F70193FD859193FF81917F018111FF
:10087000B3CF982F9F7D9554933028F40C5F1F4F72
:100880009FE399830DC0833631F0833771F0833550
:1008900009F059C021C0F801808189830E5F1F4F84
:1008A00088248394912C530113C02801F2E04F0E49
:1008B000511CF801A080B18036FE03C0692D70E0A4
:1008C00002C06FEF7FEFC5010E94AA054C018201B3
:1008D000F32DFF773F2E16C0280122E0420E511C57
:1008E000F801A080B18036FE03C0692D70E002C01F
:1008F0006FEF7FEFC5010E949F054C01F32DF0685B
:100900003F2E820133FC1BC0822D90E08816990691
:10091000B0F4B60180E290E00E94B5052A94F4CFCD
:10092000F50137FC859137FE81915F01B60190E0BA
:100930000E94B50521102A9421E0821A91088114A1
:10094000910471F7E8C0843611F0893641F5F80159
:1009500037FE07C060817181828193810C5F1F4FD8
:1009600008C060817181072E000C880B990B0E5F07
:100970001F4FF32DFF763F2E97FF09C0909580956E
:10098000709561957F4F8F4F9F4FF0683F2E2AE003
:1009900030E0A3010E94F105882E861845C08537F6
:1009A00031F4232D2F7EB22E2AE030E025C0932D86
:1009B000997FB92E8F36C1F018F4883579F0B5C01B
:1009C000803719F0883721F0B0C0E92FE061BE2EE2
:1009D000B4FE0DC0FB2DF460BF2E09C034FE0AC06A
:1009E000292F2660B22E06C028E030E005C020E1A5
:1009F00030E002C020E132E0F801B7FE07C06081BC
:100A00007181828193810C5F1F4F06C0608171816B
:100A100080E090E00E5F1F4FA3010E94F105882E39
:100A20008618FB2DFF773F2E36FE0DC0232D2E7F1F
:100A3000A22E891458F434FE0BC032FC09C0832D59
:100A40008E7EA82E05C0B82CA32C03C0B82C01C0E4
:100A5000B92CA4FE0FC0FE01E80DF11D808180338A
:100A600021F49A2D997EA92E09C0A2FE06C0B39446
:100A7000B39404C08A2D867809F0B394A3FC11C006
:100A8000A0FE06C0B21488F4280C922C9B180EC04D
:100A9000B21460F4B60180E290E00E94B505B39410
:100AA000F7CFB21418F42B1802C0982C212CA4FEF6
:100AB00010C0B60180E390E00E94B505A2FE17C009
:100AC000A1FC03C088E790E002C088E590E0B60191
:100AD0000CC08A2D867859F0A1FE02C08BE201C0BD
:100AE00080E2A7FC8DE2B60190E00E94B505891472
:100AF00038F4B60180E390E00E94B5059A94F7CFF0
:100B00008A94F301E80DF11D8081B60190E00E9406
:100B1000B5058110F5CF222009F442CEB60180E25E
:100B200090E00E94B5052A94F6CFF6018681978160
:100B300002C08FEF9FEF2B96E2E10C946B06FC0155
:100B40000590615070400110D8F7809590958E0FF8
:100B50009F1F0895FC016150704001900110D8F76B
:100B6000809590958E0F9F1F08950F931F93CF939D
:100B7000DF93FB01238121FD03C08FEF9FEF2CC08A
:100B800022FF16C0468157812481358142175307C1
:100B900044F4A081B1819D012F5F3F4F31832083B9
:100BA0008C93268137812F5F3F4F3783268314C074
:100BB0008B01EC01FB010084F185E02D0995892B67
:100BC000E1F6D80116968D919C911797019617968C
:100BD0009C938E931697CE01DF91CF911F910F9129
:100BE0000895FA01AA27283051F1203181F1E894C3
:100BF0006F936E7F6E5F7F4F8F4F9F4FAF4FB1E010
:100C00003ED0B4E03CD0670F781F891F9A1FA11D0A
:100C1000680F791F8A1F911DA11D6A0F711D811D0B
:100C2000911DA11D20D009F468943F912AE0269FD0
:100C300011243019305D3193DEF6CF010895462F2F
:100C40004770405D4193B3E00FD0C9F7F6CF462F10
:100C50004F70405D4A3318F0495D31FD4052419379
:100C600002D0A9F7EACFB4E0A69597958795779536
:100C70006795BA95C9F700976105710508959B01BD
:100C8000AC010A2E06945795479537952795BA9546
:100C9000C9F7620F731F841F951FA01D08952F921F
:100CA0003F924F925F926F927F928F929F92AF92FC
:100CB000BF92CF92DF92EF92FF920F931F93CF9349
:100CC000DF93CDB7DEB7CA1BDB0B0FB6F894DEBFE0
:100CD0000FBECDBF09942A88398848885F846E8406
:100CE0007D848C849B84AA84B984C884DF80EE8050
:100CF000FD800C811B81AA81B981CE0FD11D0FB659
:100D0000F894DEBF0FBECDBFED010895F894FFCF7C
:100D1000FFFF00000000F6005F008D004301BE00F1
:100D20009C00B00004400814000000000000000017
:100D300000000000044008140048001200000000F9
:100D40000000000004400814004820108102000048
:100D5000000000000440081400482010C1020000F8
:100D600000000000044008140048002100000000BA
:100D70000000000004400814000A00000000000009
:100D800000000000044008140208000000000000F9
:100D900000000000044008140000000000000000F3
:100DA00000000000044008140000000000000000E3
:100DB00000000000044008140000000000000000D3
:100DC00000000000044008140000000000000000C3
:100DD00000000000044008140000000000000000B3
:100DE00000000000044008140000000000000000A3
:100DF0000000000004400814000000000000000093
:100E00000000000004400814100100000000000071
:100E100000000000044008140080000000000000F2
:0E0E2000000000002530327820000D0A00008E
:107E0000112484B714BE81FFF0D085E080938100F7
:107E100082E08093C00088E18093C10086E0809377
:107E2000C20080E18093C4008EE0C9D0259A86E02C
:107E300020E33CEF91E0309385002093840096BBD3
:107E4000B09BFECF1D9AA8958150A9F7CC24DD24C4
:107E500088248394B5E0AB2EA1E19A2EF3E0BF2EE7
:107E6000A2D0813461F49FD0082FAFD0023811F036
:107E7000013811F484E001C083E08DD089C08234E0
:107E800011F484E103C0853419F485E0A6D080C0E4
:107E9000853579F488D0E82EFF2485D0082F10E0AE
:107EA000102F00270E291F29000F111F8ED06801E7
:107EB0006FC0863521F484E090D080E0DECF843638
:107EC00009F040C070D06FD0082F6DD080E0C81688
:107ED00080E7D80618F4F601B7BEE895C0E0D1E017
:107EE00062D089930C17E1F7F0E0CF16F0E7DF06D8
:107EF00018F0F601B7BEE89568D007B600FCFDCFD4
:107F0000A601A0E0B1E02C9130E011968C91119780
:107F100090E0982F8827822B932B1296FA010C0160
:107F200087BEE89511244E5F5F4FF1E0A038BF0790
:107F300051F7F601A7BEE89507B600FCFDCF97BE46
:107F4000E89526C08437B1F42ED02DD0F82E2BD052
:107F50003CD0F601EF2C8F010F5F1F4F84911BD097
:107F6000EA94F801C1F70894C11CD11CFA94CF0C13
:107F7000D11C0EC0853739F428D08EE10CD085E9AC
:107F80000AD08FE07ACF813511F488E018D01DD067
:107F900080E101D065CF982F8091C00085FFFCCF94
:107FA0009093C60008958091C00087FFFCCF809118
:107FB000C00084FD01C0A8958091C6000895E0E648
:107FC000F0E098E1908380830895EDDF803219F02E
:107FD00088E0F5DFFFCF84E1DECF1F93182FE3DFCA
:107FE0001150E9F7F2DF1F91089580E0E8DFEE27F6
:047FF000FF270994CA
:027FFE00040479
:0400000300007E007B
:00000001FF
