:1000000072C000009EC000009CC000009AC00000AA
:1000100098C0000096C0000094C0000092C000008C
:1000200090C000008EC000008CC000008AC000009C
:1000300088C0000086C0000084C0000082C00000AC
:1000400080C000007EC000007CC000007AC00000BC
:1000500078C0000076C0000074C0000062C20000DA
:1000600070C00000D1C20000A6C200006AC000003B
:1000700068C0000066C0000064C0000062C00000EC
:1000800060C000005EC000005CC000005AC00000FC
:1000900058C0000056C0000054C0000052C000000C
:1000A00050C000004EC000004CC000004AC000001C
:1000B00048C0000046C0000044C0000042C000002C
:1000C00040C000003EC000003CC000003AC000003C
:1000D00038C0000036C0000034C0000032C000004C
:1000E00030C000005E0411241FBECFEFD1E2DEBF9E
:1000F000CDBF00E00CBF13E0A0E0B2E0E8EEFEE010
:1001000000E00BBF02C007900D92A832B107D9F7EB
:1001100027E0A8E2B3E001C01D92A43DB207E1F7D9
:1001200010E0C3E7D0E000E005C021970109802F6F
:10013000FE01F1D3C237D10780E00807B1F79AD2A8
:10014000D1C65ECFCF92DF92EF92FF920F931F93B3
:10015000CF93DF936C017A018B01C0E0D0E0CE1524
:10016000DF0581F0D8016D918D01D601ED91FC91F3
:100170000190F081E02DC6011995892B11F021968F
:10018000EECF7E01C701DF91CF911F910F91FF90BC
:10019000EF90DF90CF900895089580E090E008956B
:1001A000FC01538D448D252F30E0842F90E0821B7D
:1001B000930B541710F0CF96089501970895FC0102
:1001C000918D828D981761F0828DDF01A80FB11D8E
:1001D0005D968C91928D9F5F9F73928F90E00895B2
:1001E0008FEF9FEF0895FC01918D828D981731F06C
:1001F000828DE80FF11D858D90E008958FEF9FEFC0
:100200000895FC01918D228D892F90E0805C9F4F95
:10021000821B91098F739927089587E397E0F1DF97
:1002200021E0892B09F420E0822F0895FC01848DC0
:10023000DF01A80FB11DA35ABF4F2C91848D90E010
:1002400001968F739927848FA689B7892C93A089EB
:10025000B1898C91837080648C93938D848D981375
:1002600006C00288F389E02D80818F7D8083089508
:10027000EF92FF920F931F93CF93DF93EC0181E0F6
:10028000888F9B8D8C8D981305C0E889F9898081B2
:1002900085FD25C0F62E0B8D10E00F5F1F4F0F73ED
:1002A0001127E02E8C8DE8120BC00FB607FCFACF99
:1002B000E889F989808185FFF5CFCE01B7DFF2CFDC
:1002C0008B8DFE01E80FF11DE35AFF4FF0829FB7BF
:1002D000F8940B8FEA89FB89808180620AC09FB7FE
:1002E000F894EE89FF896083E889F98980818370B9
:1002F000806480839FBF81E090E0DF91CF911F9168
:100300000F91FF90EF900895CF93DF93EC01888DCC
:100310008823C1F0EA89FB89808185FD05C0A88911
:10032000B9898C9186FD0EC00FB607FCF5CF808190
:1003300085FFF2CFA889B9898C9185FFEDCFCE01D9
:1003400075DFE8CFDF91CF91089580E090E0892BB1
:1003500019F063DF811125C080E090E0892B41F026
:1003600080E090E0892B21F00E94000081111CC0E8
:1003700080E090E0892B41F080E090E0892B21F033
:100380000E940000811113C080E090E0892BA1F051
:1003900080E090E0892B81F00E94000081110AC06A
:1003A00008950E940000D8CF0E940000E1CF0E9473
:1003B0000000EACF0C9400000895009761F0FC0162
:1003C00001900020E9F73197AF01481B590BBC01A0
:1003D00087E397E0B7CE80E090E00895A4D2AF9293
:1003E000BF92CF92DF92FF920F931F93CF93DF9331
:1003F000CDB7DEB7A1970FB6F894DEBF0FBECDBF65
:10040000F62E08E010E034E1C32E33E0D32E4CE2A8
:10041000A42E43E0B42E8091000290910102019637
:1004200081F41F92FF92DF92CF92BF92AF927FD260
:100430008CE293E0C2DF0F900F900F900F900F901F
:100440000F90809100029091010201969093010219
:1004500080930002F69401501109E9F68FEF9FEFA7
:10046000909301028093000280912A0390912B03C4
:10047000019690932B0380932A0387709927892BE9
:1004800019F48EE193E099DF80912A0390912B0378
:100490008F709927892BA9F58CE193E08EDF8AE193
:1004A00093E08BDF4091280350912903405F5F4F19
:1004B0005093290340932803052E000C660B770BFD
:1004C00019A2CE0181968A019B010F701127222764
:1004D000332724E076956795579547952A95D1F768
:1004E00001970A3014F4005D01C0095CFC0100832F
:1004F000411551056105710531F75FDF8DE193E02D
:100500005CDFA1960FB6F894DEBF0FBECDBFDF91C2
:10051000CF911F910F91FF90DF90CF90BF90AF9040
:1005200008951F920F920FB60F9211242F933F93AD
:100530008F939F93AF93BF9380913307909134072C
:10054000A0913507B09136073091320723E0230F91
:100550002D3720F40196A11DB11D05C026E8230FFB
:100560000296A11DB11D209332078093330790930B
:100570003407A0933507B093360780912E079091EA
:100580002F07A0913007B09131070196A11DB11D31
:1005900080932E0790932F07A0933007B0933107D5
:1005A000BF91AF919F918F913F912F910F900FBE6F
:1005B0000F901F9018951F920F920FB60F92112453
:1005C0000BB60F922F933F934F935F936F937F934D
:1005D0008F939F93AF93BF93EF93FF9387E397E03E
:1005E00025DEFF91EF91BF91AF919F918F917F9108
:1005F0006F915F914F913F912F910F900BBE0F9094
:100600000FBE0F901F9018951F920F920FB60F926A
:1006100011240BB60F922F938F939F93EF93FF9319
:10062000E0914707F09148078081E0914D07F091F4
:100630004E0782FD12C09081809150078F5F8F73AB
:1006400020915107821751F0E0915007F0E0E95CEA
:10065000F84F958F8093500701C08081FF91EF91F3
:100660009F918F912F910F900BBE0F900FBE0F9007
:100670001F901895CF93DF9300D0CDB7DEB7789455
:1006800084B5826084BD84B5816084BD85B5826097
:1006900085BD85B5816085BD80916E008160809348
:1006A0006E001092810080918100826080938100B1
:1006B00080918100816080938100809180008160C1
:1006C000809380008091B10084608093B10080911C
:1006D000B00081608093B00080919100826080932F
:1006E00091008091910081608093910080919000B1
:1006F0008160809390008091A10082608093A1002E
:100700008091A10081608093A1008091A000816010
:100710008093A000809121018260809321018091CB
:10072000210181608093210180912001816080936B
:10073000200180917A00846080937A0080917A0011
:10074000826080937A0080917A00816080937A0041
:1007500080917A00806880937A001092C10080E0D6
:10076000E4E1F2E0AEE2B3E001900D928A95E1F7A8
:1007700080E0E4E1F2E0AEE2B4E001900D928A950F
:10078000E1F782E098E09093A3048093A20420E034
:10079000E4E1F2E0AEE2B5E001900D922A95E1F7D6
:1007A0009093B3058093B20520E0E4E1F2E0AEE27D
:1007B000B6E001900D922A95E1F79093A3068093FD
:1007C000A2069093B3068093B206E0914707F0919A
:1007D000480782E08083E0914307F091440710824C
:1007E000E0914507F0914607108210924F07E09183
:1007F0004B07F0914C0786E08083E0914907F09128
:100800004A07808180618083E0914907F0914A071F
:10081000808188608083E0914907F0914A07808158
:1008200080688083E0914907F0914A0780818F7D3D
:1008300080831F921F9281E293E09F938F938E019A
:100840000F5F1F4F1F930F9372D0C801B6DD0F903B
:100850000F900F900F900F900F9000E010E0980114
:100860002877332783E0359527958A95E1F7C801E6
:1008700087709927F801EE27F37044E0F695E79525
:100880004A95E1F7E20FF31F53E0EE0FFF1F5A9571
:10089000E1F7E80FF91FEE0FFF1FE25DFC4F07FFC6
:1008A00002C0608101C06181C80199DD0F5F1F4FE7
:1008B000011584E0180799F648DDFECFE7E3F7E07D
:1008C0001382128288EE93E0A0E0B0E084839583E7
:1008D000A683B78386E092E09183808385EC90E0E5
:1008E0009587848784EC90E09787868780EC90E0FA
:1008F000918B808B81EC90E0938B828B82EC90E0EB
:10090000958B848B86EC90E0978B868B118E128E64
:10091000138E148E0895EE0FFF1F881F8BBF079054
:10092000F691E02D199481E090E0F894DBC20F93EA
:100930001F93CF93DF93CDB7DEB72E970FB6F89402
:10094000DEBF0FBECDBF0E891F8986E08C831A8360
:1009500009838FEF9FE79E838D83AE01465E5F4FD5
:10096000688D798DCE01019610D0EF81F885E00F6A
:10097000F11F10822E960FB6F894DEBF0FBECDBFCA
:10098000DF91CF911F910F9108952F923F924F9237
:100990005F926F927F928F929F92AF92BF92CF920F
:1009A000DF92EF92FF920F931F93CF93DF93CDB718
:1009B000DEB72B970FB6F894DEBF0FBECDBF6C012C
:1009C0007B018A01FC0117821682838181FFBFC1EE
:1009D000CE0101963C01F6019381F70193FD8591CB
:1009E00093FF81917F01882309F4ADC1853239F4E9
:1009F00093FD859193FF81917F01853221F4B601AA
:100A000090E0D6D1E8CF912C212C312CFFE1F315C9
:100A1000D8F08B3279F038F4803279F08332A1F457
:100A2000232D20611DC08D3261F0803369F4232DA8
:100A3000216016C0832D8260382EE32DE4603E2EA7
:100A40002AC0F32DF8601DC037FC2DC020ED280F03
:100A50002A3040F08E32B9F436FC75C1232D206463
:100A6000322E19C036FE06C08AE0989E200D112451
:100A7000922E11C0EAE02E9E200D1124222EF32D7D
:100A8000F0623F2E08C08C3621F4832D8068382E0A
:100A900002C0883641F4F70193FD859193FF81915F
:100AA0007F018111B3CF982F9F7D9554933028F407
:100AB0000C5F1F4F9FE399830DC0833631F083375E
:100AC00071F0833509F055C020C0F8018081898319
:100AD0000E5F1F4F88248394912C530112C028016C
:100AE000F2E04F0E511CF801A080B18036FE03C029
:100AF000692D70E002C06FEF7FEFC5014ED14C0150
:100B00008201F32DFF773F2E15C0280122E0420E0F
:100B1000511CF801A080B18036FE03C0692D70E041
:100B200002C06FEF7FEFC5012DD14C01F32DF068AE
:100B30003F2E820133FC19C0822D90E08816990661
:100B4000A0F4B60180E290E033D12A94F5CFF5010C
:100B500037FC859137FE81915F01B60190E028D185
:100B600021102A9421E0821A91088114910479F7C6
:100B7000E1C0843611F0893639F5F80137FE07C037
:100B800060817181828193810C5F1F4F08C06081F9
:100B90007181072E000C880B990B0E5F1F4FF32DF0
:100BA000FF763F2E97FF09C09095809570956195CF
:100BB0007F4F8F4F9F4FF0683F2E2AE030E0A30118
:100BC00033D1882E861844C0853731F4232D2F7EEB
:100BD000B22E2AE030E025C0932D997FB92E8F36B2
:100BE000C1F018F4883579F0AEC0803719F0883735
:100BF00021F0A9C0E92FE061BE2EB4FE0DC0FB2D8F
:100C0000F460BF2E09C034FE0AC0292F2660B22E20
:100C100006C028E030E005C020E130E002C020E15D
:100C200032E0F801B7FE07C0608171818281938153
:100C30000C5F1F4F06C06081718180E090E00E5F05
:100C40001F4FA301F1D0882E8618FB2DFF773F2E72
:100C500036FE0DC0232D2E7FA22E891458F434FEAB
:100C60000BC032FC09C0832D8E7EA82E05C0B82C87
:100C7000A32C03C0B82C01C0B92CA4FE0FC0FE01E8
:100C8000E80DF11D8081803321F49A2D997EA92EE3
:100C900009C0A2FE06C0B394B39404C08A2D86781E
:100CA00009F0B394A3FC10C0A0FE06C0B21480F4F7
:100CB000280C922C9B180DC0B21458F4B60180E297
:100CC00090E076D0B394F8CFB21418F42B1802C089
:100CD000982C212CA4FE0FC0B60180E390E068D0D0
:100CE000A2FE16C0A1FC03C088E790E002C088E520
:100CF00090E0B6010CC08A2D867851F0A1FE02C0AA
:100D00008BE201C080E2A7FC8DE2B60190E050D0FA
:100D1000891430F4B60180E390E04AD09A94F8CF79
:100D20008A94F301E80DF11D8081B60190E040D076
:100D30008110F6CF222009F44ECEB60180E290E079
:100D400037D02A94F7CFF6018681978102C08FEFC2
:100D50009FEF2B960FB6F894DEBF0FBECDBFDF918D
:100D6000CF911F910F91FF90EF90DF90CF90BF90A8
:100D7000AF909F908F907F906F905F904F903F903B
:100D80002F900895FC010590615070400110D8F734
:100D9000809590958E0F9F1F0895FC0161507040C3
:100DA00001900110D8F7809590958E0F9F1F0895A0
:100DB0000F931F93CF93DF93FB01238121FD03C08A
:100DC0008FEF9FEF2CC022FF16C0468157812481F0
:100DD00035814217530744F4A081B1819D012F5FF3
:100DE0003F4F318320838C93268137812F5F3F4F84
:100DF0003783268314C08B01EC01FB010084F1854D
:100E0000E02D1995892BE1F6D80116968D919C91CC
:100E10001797019617969C938E931697CE01DF91A4
:100E2000CF911F910F910895FA01AA27283051F10F
:100E3000203181F1E8946F936E7F6E5F7F4F8F4F0B
:100E40009F4FAF4FB1E03ED0B4E03CD0670F781F6A
:100E5000891F9A1FA11D680F791F8A1F911DA11D4F
:100E60006A0F711D811D911DA11D20D009F4689488
:100E70003F912AE0269F11243019305D3193DEF630
:100E8000CF010895462F4770405D4193B3E00FD0E6
:100E9000C9F7F6CF462F4F70405D4A3318F0495DD1
:100EA00031FD4052419302D0A9F7EACFB4E0A695B4
:100EB0009795879577956795BA95C9F700976105D6
:100EC000710508959B01AC010A2E0694579547952C
:100ED00037952795BA95C9F7620F731F841F951F21
:080EE000A01D0895F894FFCF56
:100EE800FFFF000000003801A200D00084010101CA
:100EF800DF00F300044008140000000000000000B8
:100F0800000000000440081400480012000000001F
:100F1800000000000440081400482010810200006E
:100F2800000000000440081400482010C10200001E
:100F380000000000044008140048002100000000E0
:100F48000000000004400814000A0000000000002F
:100F5800000000000440081402080000000000001F
:100F68000000000004400814000000000000000019
:100F78000000000004400814000000000000000009
:100F880000000000044008140000000000000000F9
:100F980000000000044008140000000000000000E9
:100FA80000000000044008140000000000000000D9
:100FB80000000000044008140000000000000000C9
:100FC80000000000044008140000000000000000B9
:100FD8000000000004400814100100000000000098
:100FE8000000000004400814008000000000000019
:100FF800000000002530327820000D0A003A202039
:08100800003030303A200000F6
:00000001FF
