:100000000C9435000C945D000C945D000C945D0024
:100010000C945D000C945D000C945D000C945D00EC
:100020000C945D000C945D000C945D000C945D00DC
:100030000C945D000C945D000C945D000C945D00CC
:100040000C942A020C945D000C949A020C94740295
:100050000C945D000C945D000C945D000C945D00AC
:100060000C945D000C945D00D10311241FBECFEFF2
:10007000D8E0DEBFCDBF12E0A0E0B1E0ECEBFDE0E8
:1000800002C005900D92A832B107D9F726E0A8E288
:10009000B2E001C01D92A43DB207E1F710E0C5E354
:1000A000D0E004C02197FE010E94FE03C433D107B3
:1000B000C9F70E94CC020C94DC060C940000AF92AD
:1000C000BF92CF92DF92EF92FF920F931F93CF9345
:1000D000DF936C017B018B01040F151FEB015E01A7
:1000E000AE18BF08C017D10759F06991D601ED913C
:1000F000FC910190F081E02DC6010995892B79F7DB
:10010000C501DF91CF911F910F91FF90EF90DF908C
:10011000CF90BF90AF900895FC01538D448D252F53
:1001200030E0842F90E0821B930B541710F0CF9691
:10013000089501970895FC01918D828D981761F0C3
:10014000A28DAE0FBF2FB11D5D968C91928D9F5FDA
:100150009F73928F90E008958FEF9FEF0895FC01B9
:10016000918D828D981731F0828DE80FF11D858D6C
:1001700090E008958FEF9FEF0895FC01918D228DFF
:10018000892F90E0805C9F4F821B91098F73992784
:10019000089587E396E00E94BD0021E0892B09F4D1
:1001A00020E0822F089580E090E0892B29F00E94C2
:1001B000C90081110C9400000895FC01A48DA80FC2
:1001C000B92FB11DA35ABF4F2C91848D90E0019699
:1001D0008F739927848FA689B7892C93A089B189B9
:1001E0008C91837080648C93938D848D981306C05A
:1001F0000288F389E02D80818F7D80830895EF92BE
:10020000FF920F931F93CF93DF93EC0181E0888FD0
:100210009B8D8C8D98131AC0E889F989808185FFA0
:1002200015C09FB7F894EE89FF896083E889F98942
:1002300080818370806480839FBF81E090E0DF9144
:10024000CF911F910F91FF90EF900895F62E0B8D97
:1002500010E00F5F1F4F0F731127E02E8C8D8E1152
:100260000CC00FB607FCFACFE889F989808185FFB9
:10027000F5CFCE010E94DD00F1CFEB8DEC0FFD2F0D
:10028000F11DE35AFF4FF0829FB7F8940B8FEA8974
:10029000FB8980818062CFCFCF93DF93EC01888D83
:1002A0008823B9F0AA89BB89E889F9898C9185FDF1
:1002B00003C0808186FD0DC00FB607FCF7CF8C917F
:1002C00085FFF2CF808185FFEDCFCE010E94DD005A
:1002D000E9CFDF91CF910895FC0101900020E9F76B
:1002E0003197AF01481B590BBC0187E396E00C9492
:1002F0005F00AF92BF92CF92DF92EF92FF920F9387
:100300001F93CF93DF93CDB7DEB7A1970FB6F894C5
:10031000DEBF0FBECDBF08E010E044E1C42E42E0D6
:10032000D42E55E3A52E56E0B52EE82EF12C2091C3
:100330000001309101012F3F3F4F91F41F928F93A5
:10034000DF92CF92BF92AF920E94040485E396E0C1
:100350000E946C010F900F900F900F900F900F90D4
:100360008091000190910101019690930101809389
:100370000001C7019595879501501109B1F68FEFDE
:100380009FEF90930101809300018091330690913B
:10039000340601969093340680933306877099272C
:1003A000892B21F48EE192E00E946C01809133064A
:1003B000909134068F709927892BC9F58CE192E0D2
:1003C0000E946C018AE192E00E946C01409131062A
:1003D00050913206405F5F4F509332064093310692
:1003E000052E000C660B770B19A2CE0181968A01AF
:1003F0009B010F7011272227332724E076956795FC
:10040000579547952A95D1F70A3014F5005DFC0100
:100410000293CF01411551056105710541F7EF2B9D
:1004200011F00E946C018DE192E00E946C01A19696
:100430000FB6F894DEBF0FBECDBFDF91CF911F91F5
:100440000F91FF90EF90DF90CF90BF90AF90089505
:10045000095CDDCF1F920F920FB60F9211242F93DC
:100460003F938F939F93AF93BF9380912D0690916D
:100470002E06A0912F06B091300630912C0623E075
:10048000230F2D3758F50196A11DB11D20932C0681
:1004900080932D0690932E06A0932F06B0933006DE
:1004A0008091280690912906A0912A06B0912B06EA
:1004B0000196A11DB11D8093280690932906A09353
:1004C0002A06B0932B06BF91AF919F918F913F91D8
:1004D0002F910F900FBE0F901F90189526E8230FB5
:1004E0000296A11DB11DD2CF1F920F920FB60F928F
:1004F00011242F933F934F935F936F937F938F9329
:100500009F93AF93BF93EF93FF9387E396E00E948F
:10051000DD00FF91EF91BF91AF919F918F917F91FE
:100520006F915F914F913F912F910F900FBE0F9060
:100530001F9018951F920F920FB60F9211242F93B0
:100540008F939F93EF93FF93E0914706F0914806B6
:100550008081E0914D06F0914E0682FD1BC0908196
:10056000809150068F5F8F7320915106821741F062
:10057000E0915006F0E0E95CF94F958F80935006CA
:10058000FF91EF919F918F912F910F900FBE0F9040
:100590001F9018958081F4CFCF93DF9300D01F92E6
:1005A000CDB7DEB7789484B5826084BD84B58160B0
:1005B00084BD85B5826085BD85B5816085BD80912E
:1005C0006E00816080936E001092810080918100A6
:1005D000826080938100809181008160809381009E
:1005E000809180008160809380008091B100846060
:1005F0008093B1008091B00081608093B0008091C1
:100600007A00846080937A0080917A00826080937F
:100610007A0080917A00816080937A0080917A00DC
:10062000806880937A001092C10080E0E4E1F1E0FC
:10063000A8E2B2E001900D928A95E1F780E0E4E152
:10064000F1E0A8E2B3E001900D928A95E1F782E033
:1006500098E090939D0380939C0320E0E4E1F1E017
:10066000A8E2B4E001900D922A95E1F79093AD04D1
:100670008093AC0420E0E4E1F1E0A8E2B5E0019071
:100680000D922A95E1F790939D0580939C05909398
:10069000AD058093AC05E0914706F091480682E0F5
:1006A0008083E0914306F09144061082E091450674
:1006B000F09146068FEC808310924F06E0914B0636
:1006C000F0914C0686E08083E0914906F0914A065D
:1006D000808180618083E0914906F0914A068081A3
:1006E00088608083E0914906F0914A0680818068A5
:1006F0008083E0914906F0914A0680818F7D808356
:100700001F921F9281E292E09F938F938E010F5F61
:100710001F4F1F930F930E940404C8010E946C0195
:100720000F900F900F900F900F900F9010E000E03F
:10073000E12FFF27E7FDFA95C80123E095958795FE
:100740002A95E1F78F70992734E0EE0FFF1F3A9555
:10075000E1F7E80FF91F43E0EE0FFF1F4A95E1F7BD
:10076000C80187709927E80FF91FEE0FFF1FE85D9A
:10077000FD4F9081818107FD892F0E9479010F5FD4
:100780001F4F011584E0180799F600E010E00115ED
:100790001105E9F30E94C9008823C9F30E940000F3
:1007A000F6CFE7E3F6E01382128288EE93E0A0E052
:1007B000B0E084839583A683B78386E091E091833C
:1007C000808385EC90E09587848784EC90E0978720
:1007D000868780EC90E0918B808B81EC90E0938B0E
:1007E000828B82EC90E0958B848B86EC90E0978BEB
:1007F000868B118E128E138E148E0895EE0FFF1FAE
:100800000590F491E02D0994AEE0B0E0EAE0F4E068
:100810000C94B3060D891E8986E08C831A830983A4
:100820008FEF9FE79E838D83AE01475E5F4F6F8999
:10083000788DCE0101960E9427042F813885020F02
:10084000131FF80110822E96E4E00C94CF06ABE063
:10085000B0E0EDE2F4E00C94A5067C013B018A01D6
:10086000FC0117821682838181FFC8C1CE010196E7
:100870005C01F7019381F30193FD859193FF8191D1
:100880003F01882309F453C1853239F493FD8591E2
:1008900093FF81913F01853229F4B70190E00E94D6
:1008A0001706E7CF912C212C312CFFE1F31538F0FE
:1008B0008B3211F190F4803209F1833229F137FC47
:1008C0003CC020ED280F2A3050F536FE20C08AE0CB
:1008D000989E200D1124922E06C08D3291F0803307
:1008E00071F7689430F8F30193FD859193FF81913E
:1008F0003F018111DACF21C0689431F8689432F851
:10090000F2CF689433F8EFCF689434F8ECCFEAE094
:100910002E9E200D1124222E689435F8E4CF8E32BD
:1009200029F436FC04C1689436F8DDCF8C3619F40E
:10093000689437F8D8CF8836B1F2982F9F7D9554B8
:100940009330E0F08336A1F18337C1F1833509F0AC
:1009500063C02801F2E04F0E511CF801C080D18025
:10096000692D70E036FC02C06FEF7FEFC6010E9478
:1009700001064C01689437F882010AC00C5F1F4FD2
:10098000FFE3F98388248394912C6501E89437F878
:1009900033FE2DC0522C8114910471F5552009F4B9
:1009A00068CFB70180E290E00E9417065A94F6CF14
:1009B000F801808189830E5F1F4FE4CF2801F2E0A8
:1009C0004F0E511CF801C080D180692D70E036FCBB
:1009D00002C06FEF7FEFC6010E940C064C0182013E
:1009E000D5CFB70180E290E00E9417062A94281420
:1009F000190409F0B0F7CECFF60137FC859137FE28
:100A000081916F01B70190E00E94170651105A942E
:100A1000F1E08F1A9108BFCF843619F0893609F0BA
:100A200077C0F80137FE6BC060817181828193814C
:100A30000C5F1F4FF32DFF763F2E97FF09C0909557
:100A40008095709561957F4F8F4F9F4F689437F8D1
:100A50002AE030E0A5010E944706C82ECA188C2C57
:100A6000432C36FE0CC0E89440F8C91440F434FE20
:100A700005C032FC03C0F32DFE7E4F2E892C44FEB0
:100A800095C0FE01EC0DF11D8081803309F087C017
:100A9000242D297E422E842D8870582E43FC95C02B
:100AA00040FE8FC09C2C821418F42C0C922C9818A9
:100AB00044FE91C0B70180E390E00E94170642FE19
:100AC00009C088E790E041FE02C088E590E0B701E8
:100AD0000E941706C91408F48AC0CA94D12C9FEF4B
:100AE000C91AD90ACA0CDB1CF60182916F01B70141
:100AF00090E00E941706AC14BD04B1F74FCF60819F
:100B00007181072E000C880B990B0E5F1F4F92CF3F
:100B1000D32CE894D4F82AE030E0853739F1232D3E
:100B2000297FD22E8F3601F148F48835A9F0F701DC
:100B3000868197812B96E2E10C94C106803749F0BB
:100B40008837A9F7D4FE02C06894D2F820E130E0DB
:100B50000DC06894D4F8F6CF34FE03C0822F8660AF
:100B6000D82E20E132E002C028E030E0F801D7FEC4
:100B70000FC060817181828193810C5F1F4FA5013D
:100B80000E944706C82ECA183D2CE89437F867CF54
:100B90006081718190E080E00E5F1F4FF0CF42FCDA
:100BA00002C0839478CF8394839475CF842D867804
:100BB00009F471CFF6CFB70180E290E00E941706EA
:100BC00083948214C0F3512C73CF522C5818821482
:100BD00008F46ECFF8CF842D867809F47BCF8BE2B2
:100BE00041FE80E247FC8DE2B70190E071CFB70192
:100BF00080E390E00E9417069A946CCF8FEF9FEFEE
:100C000099CFFC010590615070400110D8F7809594
:100C100090958E0F9F1F0895FC01615070400190C8
:100C20000110D8F7809590958E0F9F1F08950F9310
:100C30001F93CF93DF93182F092FEB018B8181FD39
:100C400009C01FEF0FEF812F902FDF91CF911F91E0
:100C50000F91089582FF14C02E813F818C819D8168
:100C6000281739073CF4E881F981CF01019699836F
:100C7000888310838E819F8101969F838E83E3CF2B
:100C8000E885F985812F0995892BA1F3DACFFA013F
:100C9000AA27283051F1203181F1E8946F936E7FBB
:100CA0006E5F7F4F8F4F9F4FAF4FB1E03ED0B4E0AC
:100CB0003CD0670F781F891F9A1FA11D680F791FED
:100CC0008A1F911DA11D6A0F711D811D911DA11DFE
:100CD00020D009F468943F912AE0269F112430190E
:100CE000305D3193DEF6CF010895462F4770405DA9
:100CF0004193B3E00FD0C9F7F6CF462F4F70405D58
:100D00004A3318F0495D31FD4052419302D0A9F7B2
:100D1000EACFB4E0A6959795879577956795BA95AC
:100D2000C9F700976105710508959B01AC010A2E72
:100D300006945795479537952795BA95C9F7620F49
:100D4000731F841F951FA01D08952F923F924F92ED
:100D50005F926F927F928F929F92AF92BF92CF924B
:100D6000DF92EF92FF920F931F93CF93DF93CDB754
:100D7000DEB7CA1BDB0B0FB6F894DEBF0FBECDBFCC
:100D800009942A88398848885F846E847D848C849D
:100D90009B84AA84B984C884DF80EE80FD800C81A6
:100DA0001B81AA81B981CE0FD11D0FB6F894DEBF89
:0C0DB0000FBECDBFED010895F894FFCFF9
:100DBC00FFFF00000000FF005F008C004C01BD0035
:100DCC009B00AF000440081400000000000000006D
:100DDC00000000000440081400480012000000004D
:100DEC00000000000440081400482010810200009C
:100DFC00000000000440081400482010C10200004C
:100E0C00000000000440081400480021000000000D
:100E1C000000000004400814000A0000000000005C
:100E2C00000000000440081402080000000000004C
:100E3C000000000004400814000000000000000046
:100E4C000000000004400814000000000000000036
:100E5C000000000004400814000000000000000026
:100E6C000000000004400814000000000000000016
:100E7C000000000004400814000000000000000006
:100E8C0000000000044008140000000000000000F6
:100E9C0000000000044008140000000000000000E6
:100EAC0000000000044008141001000000000000C5
:100EBC000000000004400814008000000000000046
:100ECC00000000002530327820000D0A003A202066
:080EDC00003030303A20000024
:00000001FF
