:020000040000FA
:100000000C9435000C945D000C945D000C945D0024
:100010000C945D000C945D000C945D000C945D00EC
:100020000C945D000C945D000C945D000C945D00DC
:100030000C945D000C945D000C945D000C945D00CC
:100040000C9492020C945D000C9460020C943A02A1
:100050000C945D000C945D000C945D000C945D00AC
:100060000C945D000C945D00220411241FBECFEFA0
:10007000D8E0DEBFCDBF12E0A0E0B1E0EEE5FEE0EB
:1000800002C005900D92A835B107D9F727E0A8E581
:10009000B2E001C01D92AC30B207E1F710E0C5E359
:1000A000D0E004C02197FE010E944F04C433D10761
:1000B000C9F70E94DC020C942D070C940000AF924B
:1000C000BF92CF92DF92EF92FF920F931F93CF9345
:1000D000DF936C017B018B01040F151FEB015E01A7
:1000E000AE18BF08C017D10759F06991D601ED913C
:1000F000FC910190F081E02DC6010995892B79F7DB
:10010000C501DF91CF911F910F91FF90EF90DF908C
:10011000CF90BF90AF900895FC01538D448D252F53
:1001200030E0842F90E0821B930B541710F0CF9691
:10013000089501970895FC01918D828D981761F0C3
:10014000A28DAE0FBF2FB11D5D968C91928D9F5FDA
:100150009F73928F90E008958FEF9FEF0895FC01B9
:10016000918D828D981731F0828DE80FF11D858D6C
:1001700090E008958FEF9FEF0895FC01918D228DFF
:10018000892F90E0805C9F4F821B91098F73992784
:1001900008958FE696E00E94BD0021E0892B09F4C6
:1001A00020E0822F089580E090E0892B29F00E94C2
:1001B000C90081110C9400000895FC01A48DA80FC2
:1001C000B92FB11DA35ABF4F2C91848D90E0019699
:1001D0008F739927848FA689B7892C93A089B189B9
:1001E0008C91837080648C93938D848D981306C05A
:1001F0000288F389E02D80818F7D80830895EF92BE
:10020000FF920F931F93CF93DF93EC0181E0888FD0
:100210009B8D8C8D98131AC0E889F989808185FFA0
:1002200015C09FB7F894EE89FF896083E889F98942
:1002300080818370806480839FBF81E090E0DF9144
:10024000CF911F910F91FF90EF900895F62E0B8D97
:1002500010E00F5F1F4F0F731127E02E8C8D8E1152
:100260000CC00FB607FCFACFE889F989808185FFB9
:10027000F5CFCE010E94DD00F1CFEB8DEC0FFD2F0D
:10028000F11DE35AFF4FF0829FB7F8940B8FEA8974
:10029000FB8980818062CFCFCF93DF93EC01888D83
:1002A0008823B9F0AA89BB89E889F9898C9185FDF1
:1002B00003C0808186FD0DC00FB607FCF7CF8C917F
:1002C00085FFF2CF808185FFEDCFCE010E94DD005A
:1002D000E9CFDF91CF9108953FB7F89480915D0207
:1002E00090915E02A0915F02B091600226B5A89B3A
:1002F00005C02F3F19F00196A11DB11D3FBFBA2FB8
:10030000A92F982F8827BC01CD01620F711D811D77
:10031000911D42E0660F771F881F991F4A95D1F7FC
:100320000895FC0101900020E9F73197AF01481BC7
:10033000590BBC018FE696E00C945F00CF93DF93DE
:100340000E949101EC0184E192E00E9491018C0FE6
:100350009D1FDF91CF910895CF92DF92EF92FF9290
:100360000F931F93CF93DF93C8E0D0E037E1E32EE4
:1003700032E0F32E4DE6C42E46E0D42E082F10E0D6
:1003800020910001309101012F3F3F4F91F41F92C6
:100390008F93FF92EF92DF92CF920E9455048DE6E9
:1003A00096E00E9491010F900F900F900F900F9088
:1003B0000F908091000190910101019690930101AD
:1003C00080930001C801959587952197B9F68FEF25
:1003D0009FEF909301018093000180916B069091B3
:1003E0006C06019690936C0680936B068770992734
:1003F000892B21F48DE192E00E94910180916B069E
:1004000090916C068F709927892B59F586E192E0BF
:100410000E949E018091690690916A064096909391
:100420006A06809369069F938F9380E292E09F9380
:100430008F9381E696E09F938F930E9455040F90CF
:100440000F900F900F900F900F9081E696E0DF9144
:10045000CF911F910F91FF90EF90DF90CF900C9470
:100460009101DF91CF911F910F91FF90EF90DF905D
:10047000CF9008951F920F920FB60F9211242F93D1
:100480003F934F935F936F937F938F939F93AF931C
:10049000BF93EF93FF938FE696E00E94DD00FF91FC
:1004A000EF91BF91AF919F918F917F916F915F91EC
:1004B0004F913F912F910F900FBE0F901F90189565
:1004C0001F920F920FB60F9211242F938F939F9329
:1004D000EF93FF93E0917F06F09180068081E09199
:1004E0008506F091860682FD1BC09081809188066A
:1004F0008F5F8F7320918906821741F0E091880603
:10050000F0E0E159F94F958F80938806FF91EF91C4
:100510009F918F912F910F900FBE0F901F90189564
:100520008081F4CF1F920F920FB60F9211242F9358
:100530003F938F939F93AF93BF9380915902909174
:100540005A02A0915B02B0915C023091580223E004
:10055000230F2D3758F50196A11DB11D2093580288
:100560008093590290935A02A0935B02B0935C026D
:1005700080915D0290915E02A0915F02B091600255
:100580000196A11DB11D80935D0290935E02A09320
:100590005F02B0936002BF91AF919F918F913F91A5
:1005A0002F910F900FBE0F901F90189526E8230FE4
:1005B0000296A11DB11DD2CFCF93DF9300D01F9221
:1005C000CDB7DEB7789484B5826084BD84B5816090
:1005D00084BD85B5826085BD85B5816085BD80910E
:1005E0006E00816080936E00109281008091810086
:1005F000826080938100809181008160809381007E
:10060000809180008160809380008091B10084603F
:100610008093B1008091B00081608093B0008091A0
:100620007A00846080937A0080917A00826080935F
:100630007A0080917A00816080937A0080917A00BC
:10064000806880937A001092C10080E0E4E1F1E0DC
:10065000A1E6B2E001900D928A95E1F780E0E4E135
:10066000F1E0A1E6B3E001900D928A95E1F782E016
:1006700098E09093D6038093D50320E0E4E1F1E085
:10068000A1E6B4E001900D922A95E1F79093E6047B
:100690008093E50420E0E4E1F1E0A1E6B5E001901B
:1006A0000D922A95E1F79093D6058093D505909306
:1006B000E6058093E505E0917F06F091800682E0F3
:1006C0008083E0917B06F0917C061082E0917D06AC
:1006D000F0917E068FEC808310928706E09183066E
:1006E000F091840686E08083E0918106F091820695
:1006F000808180618083E0918106F0918206808113
:1007000088608083E0918106F09182068081806814
:100710008083E0918106F091820680818F7D8083C5
:1007200087E292E00E94910110E000E00E946C01DB
:100730004B015C016AE0C62ED12CE12CF12C0E9409
:100740006C01681979098A099B09683E7340810523
:100750009105A8F321E0C21AD108E108F10888EE5A
:10076000880E83E0981EA11CB11CC114D104E104C1
:10077000F10429F7C8018F739927892B21F48AE3A3
:1007800092E00E9491010F5F1F4F011584E018074E
:1007900069F68CE392E00E949E0182E492E00E945E
:1007A0009E011F921F9281E592E09F938F938E018D
:1007B0000F5F1F4F1F930F930E945504C8010E94A3
:1007C00091010F900F900F900F900F900F9010E0ED
:1007D00000E0E12FFF27E7FDFA95C80123E095959A
:1007E00087952A95E1F78F70992734E0EE0FFF1F68
:1007F0003A95E1F7E80FF91F43E0EE0FFF1F4A9526
:10080000E1F7C80187709927E80FF91FEE0FFF1F66
:10081000EF59FD4F9081818107FD892F0E94AC0126
:100820000F5F1F4F011524E0120799F600E010E05A
:1008300001151105E9F30E94C9008823C9F30E943C
:100840000000F6CFEFE6F6E01382128288EE93E026
:10085000A0E0B0E084839583A683B78386E091E02F
:100860009183808385EC90E09587848784EC90E089
:100870009787868780EC90E0918B808B81EC90E06D
:10088000938B828B82EC90E0958B848B86EC90E04E
:10089000978B868B118E128E138E148E0895EE0F09
:1008A000FF1F0590F491E02D0994AEE0B0E0EBE578
:1008B000F4E00C9404070D891E8986E08C831A836A
:1008C00009838FEF9FE79E838D83AE01475E5F4F65
:1008D0006F89788DCE0101960E9478042F8138852A
:1008E000020F131FF80110822E96E4E00C942007EB
:1008F000ABE0B0E0EEE7F4E00C94F6067C013B01DF
:100900008A01FC0117821682838181FFC8C1CE0152
:1009100001965C01F7019381F30193FD859193FFAB
:1009200081913F01882309F453C1853239F493FD45
:10093000859193FF81913F01853229F4B70190E0C1
:100940000E946806E7CF912C212C312CFFE1F31592
:1009500038F08B3211F190F4803209F1833229F1B1
:1009600037FC3CC020ED280F2A3050F536FE20C061
:100970008AE0989E200D1124922E06C08D3291F0AF
:10098000803371F7689430F8F30193FD859193FFFC
:1009900081913F018111DACF21C0689431F86894C8
:1009A00032F8F2CF689433F8EFCF689434F8ECCF94
:1009B000EAE02E9E200D1124222E689435F8E4CF13
:1009C0008E3229F436FC04C1689436F8DDCF8C36BB
:1009D00019F4689437F8D8CF8836B1F2982F9F7DF4
:1009E00095549330E0F08336A1F18337C1F183351C
:1009F00009F063C02801F2E04F0E511CF801C080DD
:100A0000D180692D70E036FC02C06FEF7FEFC60128
:100A10000E9452064C01689437F882010AC00C5FAC
:100A20001F4FFFE3F98388248394912C6501E89498
:100A300037F833FE2DC0522C8114910471F55520E6
:100A400009F468CFB70180E290E00E9468065A94EA
:100A5000F6CFF801808189830E5F1F4FE4CF280114
:100A6000F2E04F0E511CF801C080D180692D70E07A
:100A700036FC02C06FEF7FEFC6010E945D064C019D
:100A80008201D5CFB70180E290E00E9468062A94E7
:100A90002814190409F0B0F7CECFF60137FC859180
:100AA00037FE81916F01B70190E00E9468065110F6
:100AB0005A94F1E08F1A9108BFCF843619F0893625
:100AC00009F077C0F80137FE6BC0608171818281C7
:100AD00093810C5F1F4FF32DFF763F2E97FF09C0C8
:100AE00090958095709561957F4F8F4F9F4F68943B
:100AF00037F82AE030E0A5010E949806C82ECA18EF
:100B00008C2C432C36FE0CC0E89440F8C91440F4F9
:100B100034FE05C032FC03C0F32DFE7E4F2E892C1F
:100B200044FE95C0FE01EC0DF11D8081803309F07B
:100B300087C0242D297E422E842D8870582E43FC98
:100B400095C040FE8FC09C2C821418F42C0C922C63
:100B5000981844FE91C0B70180E390E00E946806B7
:100B600042FE09C088E790E041FE02C088E590E0BF
:100B7000B7010E946806C91408F48AC0CA94D12C2F
:100B80009FEFC91AD90ACA0CDB1CF60182916F01CA
:100B9000B70190E00E946806AC14BD04B1F74FCFD6
:100BA00060817181072E000C880B990B0E5F1F4F1F
:100BB00092CFD32CE894D4F82AE030E0853739F18D
:100BC000232D297FD22E8F3601F148F48835A9F0E4
:100BD000F701868197812B96E2E10C94120780370A
:100BE00049F08837A9F7D4FE02C06894D2F820E112
:100BF00030E00DC06894D4F8F6CF34FE03C0822FE5
:100C00008660D82E20E132E002C028E030E0F80112
:100C1000D7FE0FC060817181828193810C5F1F4F6D
:100C2000A5010E949806C82ECA183D2CE89437F8F2
:100C300067CF6081718190E080E00E5F1F4FF0CF41
:100C400042FC02C0839478CF8394839475CF842D23
:100C5000867809F471CFF6CFB70180E290E00E9468
:100C6000680683948214C0F3512C73CF522C581809
:100C7000821408F46ECFF8CF842D867809F47BCFE8
:100C80008BE241FE80E247FC8DE2B70190E071CF3C
:100C9000B70180E390E00E9468069A946CCF8FEFD2
:100CA0009FEF99CFFC010590615070400110D8F77B
:100CB000809590958E0F9F1F0895FC0161507040A4
:100CC00001900110D8F7809590958E0F9F1F089581
:100CD0000F931F93CF93DF93182F092FEB018B8175
:100CE00081FD09C01FEF0FEF812F902FDF91CF9172
:100CF0001F910F91089582FF14C02E813F818C8136
:100D00009D81281739073CF4E881F981CF010196CC
:100D10009983888310838E819F8101969F838E8320
:100D2000E3CFE885F985812F0995892BA1F3DACFE7
:100D3000FA01AA27283051F1203181F1E8946F930C
:100D40006E7F6E5F7F4F8F4F9F4FAF4FB1E03ED0B2
:100D5000B4E03CD0670F781F891F9A1FA11D680F50
:100D6000791F8A1F911DA11D6A0F711D811D911D83
:100D7000A11D20D009F468943F912AE0269F1124F8
:100D80003019305D3193DEF6CF010895462F47705C
:100D9000405D4193B3E00FD0C9F7F6CF462F4F70B7
:100DA000405D4A3318F0495D31FD4052419302D015
:100DB000A9F7EACFB4E0A6959795879577956795BB
:100DC000BA95C9F700976105710508959B01AC01BB
:100DD0000A2E06945795479537952795BA95C9F7E2
:100DE000620F731F841F951FA01D08952F923F92BD
:100DF0004F925F926F927F928F929F92AF92BF922B
:100E0000CF92DF92EF92FF920F931F93CF93DF93D6
:100E1000CDB7DEB7CA1BDB0B0FB6F894DEBF0FBE33
:100E2000CDBF09942A88398848885F846E847D8480
:100E30008C849B84AA84B984C884DF80EE80FD8082
:100E40000C811B81AA81B981CE0FD11D0FB6F894F8
:100E5000DEBF0FBECDBFED010895F894FFCFFFFFB9
:100E600000000000FF005F008C004C01BD009B00F3
:100E7000AF00044008140000000000000000000063
:100E800000000440081400480012000000000000A8
:100E900000000440081400482010810200000000F7
:100EA00000000440081400482010C10200000000A7
:100EB0000000044008140048002100000000000069
:100EC000000004400814000A0000000000000000B8
:100ED00000000440081402080000000000000000A8
:100EE00000000440081400000000000000000000A2
:100EF0000000044008140000000000000000000092
:100F00000000044008140000000000000000000081
:100F10000000044008140000000000000000000071
:100F20000000044008140000000000000000000061
:100F30000000044008140000000000000000000051
:100F40000000044008140000000000000000000041
:100F50000000044008141001000000000000000020
:100F600000000440081400800000000000000000A1
:100F700000000D0A002530327820002020002530A6
:100F800033783A200050726F6772616D6D696E67D9
:100F900020454550524F4D002E0020646F6E650075
:100FA00052656164696E6720454550524F4D00306F
:060FB00030303A20000081
:107E0000112484B714BE81FFF0D085E080938100F7
:107E100082E08093C00088E18093C10086E0809377
:107E2000C20080E18093C4008EE0C9D0259A86E02C
:107E300020E33CEF91E0309385002093840096BBD3
:107E4000B09BFECF1D9AA8958150A9F7CC24DD24C4
:107E500088248394B5E0AB2EA1E19A2EF3E0BF2EE7
:107E6000A2D0813461F49FD0082FAFD0023811F036
:107E7000013811F484E001C083E08DD089C08234E0
:107E800011F484E103C0853419F485E0A6D080C0E4
:107E9000853579F488D0E82EFF2485D0082F10E0AE
:107EA000102F00270E291F29000F111F8ED06801E7
:107EB0006FC0863521F484E090D080E0DECF843638
:107EC00009F040C070D06FD0082F6DD080E0C81688
:107ED00080E7D80618F4F601B7BEE895C0E0D1E017
:107EE00062D089930C17E1F7F0E0CF16F0E7DF06D8
:107EF00018F0F601B7BEE89568D007B600FCFDCFD4
:107F0000A601A0E0B1E02C9130E011968C91119780
:107F100090E0982F8827822B932B1296FA010C0160
:107F200087BEE89511244E5F5F4FF1E0A038BF0790
:107F300051F7F601A7BEE89507B600FCFDCF97BE46
:107F4000E89526C08437B1F42ED02DD0F82E2BD052
:107F50003CD0F601EF2C8F010F5F1F4F84911BD097
:107F6000EA94F801C1F70894C11CD11CFA94CF0C13
:107F7000D11C0EC0853739F428D08EE10CD085E9AC
:107F80000AD08FE07ACF813511F488E018D01DD067
:107F900080E101D065CF982F8091C00085FFFCCF94
:107FA0009093C60008958091C00087FFFCCF809118
:107FB000C00084FD01C0A8958091C6000895E0E648
:107FC000F0E098E1908380830895EDDF803219F02E
:107FD00088E0F5DFFFCF84E1DECF1F93182FE3DFCA
:107FE0001150E9F7F2DF1F91089580E0E8DFEE27F6
:047FF000FF270994CA
:027FFE00040479
:00000001FF
