:100000000C9435000C945D000C945D000C945D0024
:100010000C945D000C945D000C945D000C945D00EC
:100020000C945D000C945D000C945D000C945D00DC
:100030000C945D000C945D000C945D000C945D00CC
:100040000C943D020C945D000C94AD020C9487025C
:100050000C945D000C945D000C945D000C945D00AC
:100060000C945D000C945D00240411241FBECFEF9E
:10007000D8E0DEBFCDBF12E0A0E0B1E0E0E9FEE0F5
:1000800002C005900D92A835B107D9F727E0A8E581
:10009000B2E001C01D92AC30B207E1F710E0C5E359
:1000A000D0E004C02197FE010E945104C433D1075F
:1000B000C9F70E94DF020C9446070C9400003FB77A
:1000C000F89480916B0690916C06A0916D06B091AA
:1000D0006E0626B5A89B05C02F3F19F00196A11DFD
:1000E000B11D3FBFBA2FA92F982F8827820F911DCE
:1000F000A11DB11DBC01CD0142E0660F771F881F15
:10010000991F4A95D1F70895CF92DF92EF92FF920F
:100110000F931F93CF93DF936C017A018B01C0E0A3
:10012000D0E0CE15DF0581F0D8016D918D01D601AB
:10013000ED91FC910190F081E02DC6010995892B8C
:1001400011F02196EECF7E01C701DF91CF911F9173
:100150000F91FF90EF90DF90CF900895089580E089
:1001600090E00895FC01538D448D252F30E0842FBD
:1001700090E0821B930B541710F0CF9608950197CF
:100180000895FC01918D828D981761F0828DDF01B9
:10019000A80FB11D5D968C91928D9F5F9F73928F7A
:1001A00090E008958FEF9FEF0895FC01918D828D6F
:1001B000981731F0828DE80FF11D858D90E008953C
:1001C0008FEF9FEF0895FC01918D228D892F90E094
:1001D000805C9F4F821B91098F73992708958FE64A
:1001E00096E00E94E30021E0892B09F420E0822FB1
:1001F0000895FC01848DDF01A80FB11DA35ABF4FE4
:100200002C91848D90E001968F739927848FA68915
:10021000B7892C93A089B1898C91837080648C9369
:10022000938D848D981306C00288F389E02D808118
:100230008F7D80830895EF92FF920F931F93CF934A
:10024000DF93EC0181E0888F9B8D8C8D981305C026
:10025000E889F989808185FD26C0F62E0B8D10E096
:100260000F5F1F4F0F731127E02E8C8DE8120CC00B
:100270000FB607FCFACFE889F989808185FFF5CFB1
:10028000CE010E94F900F1CF8B8DFE01E80FF11D28
:10029000E35AFF4FF0829FB7F8940B8FEA89FB89EE
:1002A000808180620AC09FB7F894EE89FF896083DD
:1002B000E889F98980818370806480839FBF81E0B1
:1002C00090E0DF91CF911F910F91FF90EF900895F3
:1002D000CF93DF93EC01888D8823C9F0EA89FB89ED
:1002E000808185FD05C0A889B9898C9186FD0FC0E4
:1002F0000FB607FCF5CF808185FFF2CFA889B989B9
:100300008C9185FFEDCFCE010E94F900E7CFDF9100
:10031000CF91089580E090E0892B29F00E94EF00B2
:1003200081110C9400000895009769F0FC01019080
:100330000020E9F73197AF01481B590BBC018FE64C
:1003400096E00C94840080E090E00895CF93DF93D2
:100350000E949401EC0184E192E00E9494018C0FD0
:100360009D1FDF91CF910895CF92DF92EF92FF9280
:100370001F93CF93DF93162FC8E0D0E087E1E82EDC
:1003800082E0F82E94E6C92E92E0D92E80910001E9
:1003900090910101019691F41F921F93FF92EF92A9
:1003A000DF92CF920E945C0484E692E00E94940166
:1003B0000F900F900F900F900F900F908091000171
:1003C000909101010196909301018093000116958F
:1003D0002197E1F68FEF9FEF909301018093000149
:1003E00080916202909163020196909363028093E0
:1003F000620287709927892B21F48DE192E00E9497
:10040000940180916202909163028F709927892BE9
:1004100051F586E192E00E94A601809160029091E0
:100420006102409690936102809360029F938F9344
:1004300080E292E09F938F9388E592E09F938F9361
:100440000E945C040F900F900F900F900F900F90F0
:1004500088E592E0DF91CF911F91FF90EF90DF90C0
:10046000CF900C949401DF91CF911F91FF90EF906A
:10047000DF90CF9008950E9457041F920F920FB6FD
:100480000F9211242F933F938F939F93AF93BF931A
:100490008091670690916806A0916906B0916A06FE
:1004A0003091660623E0230F2D3720F40196A11D1D
:1004B000B11D05C026E8230F0296A11DB11D209392
:1004C00066068093670690936806A0936906B093CA
:1004D0006A0680916B0690916C06A0916D06B091B2
:1004E0006E060196A11DB11D80936B0690936C065C
:1004F000A0936D06B0936E06BF91AF919F918F91BF
:100500003F912F910F900FBE0F901F9018951F9243
:100510000F920FB60F9211242F933F934F935F9337
:100520006F937F938F939F93AF93BF93EF93FF93BB
:100530008FE696E00E94F900FF91EF91BF91AF9195
:100540009F918F917F916F915F914F913F912F91EB
:100550000F900FBE0F901F9018951F920F920FB61D
:100560000F9211242F938F939F93EF93FF93E0911A
:100570007F06F09180068081E0918506F0918606E5
:1005800082FD12C09081809188068F5F8F732091C9
:100590008906821751F0E0918806F0E0E159F94FA1
:1005A000958F8093880601C08081FF91EF919F9184
:1005B0008F912F910F900FBE0F901F901895CF9392
:1005C000DF9300D01F92CDB7DEB7789484B58260F8
:1005D00084BD84B5816084BD85B5826085BD85B5E7
:1005E000816085BD80916E00816080936E00109265
:1005F00081008091810082608093810080918100E0
:100600008160809381008091800081608093800070
:100610008091B10084608093B1008091B0008160CE
:100620008093B00080917A00846080937A008091FA
:100630007A00826080937A0080917A008160809352
:100640007A0080917A00806880937A001092C100CD
:1006500080E0E4E1F1E0A6E6B2E001900D928A9537
:10066000E1F780E0E4E1F1E0A6E6B3E001900D926D
:100670008A95E1F782E098E09093DB038093DA03B8
:1006800020E0E4E1F1E0A6E6B4E001900D922A95C5
:10069000E1F79093EB048093EA0420E0E4E1F1E0D9
:1006A000A6E6B5E001900D922A95E1F79093DB055F
:1006B0008093DA059093EB058093EA05E0917F063D
:1006C000F091800682E08083E0917F06F0918006C1
:1006D0001082E0917B06F0917C061082E0917D060D
:1006E000F0917E0680E1808310928706E091830678
:1006F000F091840686E08083E0918106F091820685
:10070000808180618083E0918106F0918206808102
:1007100088608083E0918106F09182068081806804
:100720008083E0918106F091820680818F7D8083B5
:1007300087E292E00E94940100E010E00E945F00D6
:100740004B015C017AE0C72ED12CE12CF12C0E94E8
:100750005F00DC01CB0188199909AA09BB09883E11
:100760009340A105B10598F321E0C21AD108E10830
:10077000F10888EE880E83E0981EA11CB11CC114FC
:10078000D104E104F10419F7C8018F739927892B6B
:1007900021F48AE392E00E9494010F5F1F4F01153C
:1007A00084E0180759F68CE392E00E94A60182E4E7
:1007B00092E00E94A6011F921F9281E592E09F9312
:1007C0008F938E010F5F1F4F1F930F930E945C0446
:1007D000C8010E9494010F900F900F900F900F90FE
:1007E0000F9000E010E098012877332783E03595DB
:1007F00027958A95E1F7C80187709927F801EE27B8
:10080000F37044E0F695E7954A95E1F7E20FF31FA0
:1008100053E0EE0FFF1F5A95E1F7E80FF91FEE0FB7
:10082000FF1FEA59FD4F07FF02C0608101C06181CF
:10083000C8010E94B4010F5F1F4F011524E0120789
:1008400091F60E948A01FDCFEFE6F6E01382128254
:1008500088EE93E0A0E0B0E084839583A683B7831D
:1008600086E091E09183808385EC90E09587848792
:1008700084EC90E09787868780EC90E0918B808B6A
:1008800081EC90E0938B828B82EC90E0958B848B53
:1008900086EC90E0978B868B118E128E138E148EC1
:1008A0000895EE0FFF1F0590F491E02D099481E06B
:1008B00090E0F8940C944607AEE0B0E0E2E6F4E095
:1008C0000C941D070D891E8986E08C831A83098389
:1008D0008FEF9FE79E838D83AE01475E5F4F6F89E9
:1008E000788DCE0101960E947E04EF81F885E00F9D
:1008F000F11F10822E96E4E00C943907ABE0B0E0D3
:10090000E4E8F4E00C940F076C017B018A01FC0120
:1009100017821682838181FFCCC1CE0101963C01F2
:10092000F6019381F70193FD859193FF81917F01FA
:10093000882309F4BAC1853239F493FD859193FF78
:1009400081917F01853229F4B60190E00E947506FD
:10095000E7CF912C212C312CFFE1F315D8F08B320D
:1009600079F038F4803279F08332A1F4232D2061BC
:100970001DC08D3261F0803369F4232D216016C0D3
:10098000832D8260382EE32DE4603E2E2AC0F32DA5
:10099000F8601DC037FC2DC020ED280F2A3040F034
:1009A0008E32B9F436FC81C1232D2064322E19C059
:1009B00036FE06C08AE0989E200D1124922E11C0AA
:1009C000EAE02E9E200D1124222EF32DF0623F2E00
:1009D00008C08C3621F4832D8068382E02C08836FA
:1009E00041F4F70193FD859193FF81917F0181117E
:1009F000B3CF982F9F7D9554933028F40C5F1F4FF1
:100A00009FE399830DC0833631F0833771F08335CE
:100A100009F059C021C0F801808189830E5F1F4F02
:100A200088248394912C530113C02801F2E04F0EC7
:100A3000511CF801A080B18036FE03C0692D70E022
:100A400002C06FEF7FEFC5010E946A064C01820170
:100A5000F32DFF773F2E16C0280122E0420E511CD5
:100A6000F801A080B18036FE03C0692D70E002C09D
:100A70006FEF7FEFC5010E945F064C01F32DF06818
:100A80003F2E820133FC1BC0822D90E08816990610
:100A9000B0F4B60180E290E00E9475062A94F4CF8B
:100AA000F50137FC859137FE81915F01B60190E039
:100AB0000E94750621102A9421E0821A910881145F
:100AC000910471F7E8C0843611F0893641F5F801D8
:100AD00037FE07C060817181828193810C5F1F4F57
:100AE00008C060817181072E000C880B990B0E5F86
:100AF0001F4FF32DFF763F2E97FF09C090958095ED
:100B0000709561957F4F8F4F9F4FF0683F2E2AE081
:100B100030E0A3010E94B106882E861845C08537B3
:100B200031F4232D2F7EB22E2AE030E025C0932D04
:100B3000997FB92E8F36C1F018F4883579F0B5C099
:100B4000803719F0883721F0B0C0E92FE061BE2E60
:100B5000B4FE0DC0FB2DF460BF2E09C034FE0AC0E8
:100B6000292F2660B22E06C028E030E005C020E123
:100B700030E002C020E132E0F801B7FE07C060813A
:100B80007181828193810C5F1F4F06C060817181EA
:100B900080E090E00E5F1F4FA3010E94B106882EF7
:100BA0008618FB2DFF773F2E36FE0DC0232D2E7F9E
:100BB000A22E891458F434FE0BC032FC09C0832DD8
:100BC0008E7EA82E05C0B82CA32C03C0B82C01C063
:100BD000B92CA4FE0FC0FE01E80DF11D8081803309
:100BE00021F49A2D997EA92E09C0A2FE06C0B394C5
:100BF000B39404C08A2D867809F0B394A3FC11C085
:100C0000A0FE06C0B21488F4280C922C9B180EC0CB
:100C1000B21460F4B60180E290E00E947506B394CD
:100C2000F7CFB21418F42B1802C0982C212CA4FE74
:100C300010C0B60180E390E00E947506A2FE17C0C6
:100C4000A1FC03C088E790E002C088E590E0B6010F
:100C50000CC08A2D867859F0A1FE02C08BE201C03B
:100C600080E2A7FC8DE2B60190E00E94750689142F
:100C700038F4B60180E390E00E9475069A94F7CFAD
:100C80008A94F301E80DF11D8081B60190E00E9485
:100C900075068110F5CF222009F442CEB60180E21C
:100CA00090E00E9475062A94F6CFF601868197811E
:100CB00002C08FEF9FEF2B96E2E10C942B07FC0113
:100CC0000590615070400110D8F7809590958E0F77
:100CD0009F1F0895FC016150704001900110D8F7EA
:100CE000809590958E0F9F1F08950F931F93CF931C
:100CF000DF93FB01238121FD03C08FEF9FEF2CC009
:100D000022FF16C04681578124813581421753073F
:100D100044F4A081B1819D012F5F3F4F3183208337
:100D20008C93268137812F5F3F4F3783268314C0F2
:100D30008B01EC01FB010084F185E02D0995892BE5
:100D4000E1F6D80116968D919C911797019617960A
:100D50009C938E931697CE01DF91CF911F910F91A7
:100D60000895FA01AA27283051F1203181F1E89441
:100D70006F936E7F6E5F7F4F8F4F9F4FAF4FB1E08E
:100D80003ED0B4E03CD0670F781F891F9A1FA11D89
:100D9000680F791F8A1F911DA11D6A0F711D811D8A
:100DA000911DA11D20D009F468943F912AE0269F4F
:100DB00011243019305D3193DEF6CF010895462FAE
:100DC0004770405D4193B3E00FD0C9F7F6CF462F8F
:100DD0004F70405D4A3318F0495D31FD40524193F8
:100DE00002D0A9F7EACFB4E0A695979587957795B5
:100DF0006795BA95C9F700976105710508959B013C
:100E0000AC010A2E06945795479537952795BA95C4
:100E1000C9F7620F731F841F951FA01D08952F929D
:100E20003F924F925F926F927F928F929F92AF927A
:100E3000BF92CF92DF92EF92FF920F931F93CF93C7
:100E4000DF93CDB7DEB7CA1BDB0B0FB6F894DEBF5E
:100E50000FBECDBF09942A88398848885F846E8484
:100E60007D848C849B84AA84B984C884DF80EE80CE
:100E7000FD800C811B81AA81B981CE0FD11D0FB6D7
:100E8000F894DEBF0FBECDBFED010895F894FFCFFB
:100E9000FFFF000000001B018400B2006801E300B6
:100EA000C100D5000440081400000000000000004C
:100EB0000000000004400814004800120000000078
:100EC00000000000044008140048201081020000C7
:100ED000000000000440081400482010C102000077
:100EE0000000000004400814004800210000000039
:100EF0000000000004400814000A00000000000088
:100F00000000000004400814020800000000000077
:100F10000000000004400814000000000000000071
:100F20000000000004400814000000000000000061
:100F30000000000004400814000000000000000051
:100F40000000000004400814000000000000000041
:100F50000000000004400814000000000000000031
:100F60000000000004400814000000000000000021
:100F70000000000004400814000000000000000011
:100F800000000000044008141001000000000000F0
:100F90000000000004400814008000000000000071
:100FA000000000000D0A00253032782000202000CB
:100FB000253033783A200050726F6772616D6D6929
:100FC0006E6720454550524F4D002E0020646F6ED5
:100FD000650052656164696E6720454550524F4D0A
:080FE000003030303A2000001F
:00000001FF
