:100000000C9435000C945D000C945D000C945D0024
:100010000C945D000C945D000C945D000C945D00EC
:100020000C945D000C945D000C945D000C945D00DC
:100030000C945D000C945D000C945D000C945D00CC
:100040000C942C020C945D000C949C020C9476028F
:100050000C945D000C945D000C945D000C945D00AC
:100060000C945D000C945D00CA0311241FBECFEFF9
:10007000D8E0DEBFCDBF12E0A0E0B1E0ECEDFDE0E6
:1000800002C005900D92A832B107D9F726E0A8E288
:10009000B2E001C01D92A43DB207E1F710E0C5E354
:1000A000D0E004C02197FE010E94F703C433D107BA
:1000B000C9F70E94CE020C94EC060C940000CF927B
:1000C000DF92EF92FF920F931F93CF93DF936C0118
:1000D0007A018B01C0E0D0E0CE15DF0581F0D801B8
:1000E0006D918D01D601ED91FC910190F081E02D93
:1000F000C6010995892B11F02196EECF7E01C7012B
:10010000DF91CF911F910F91FF90EF90DF90CF90F3
:100110000895089580E090E00895FC01538D448D8A
:10012000252F30E0842F90E0821B930B541710F0A2
:10013000CF96089501970895FC01918D828D9817AF
:1001400061F0828DDF01A80FB11D5D968C91928DBB
:100150009F5F9F73928F90E008958FEF9FEF0895B8
:10016000FC01918D828D981731F0828DE80FF11D81
:10017000858D90E008958FEF9FEF0895FC01918D9C
:10018000228D892F90E0805C9F4F821B91098F7395
:100190009927089587E396E00E94BE0021E0892B0D
:1001A00009F420E0822F0895FC01848DDF01A80F5F
:1001B000B11DA35ABF4F2C91848D90E001968F738F
:1001C0009927848FA689B7892C93A089B1898C91AE
:1001D000837080648C93938D848D981306C00288FD
:1001E000F389E02D80818F7D80830895EF92FF92C7
:1001F0000F931F93CF93DF93EC0181E0888F9B8D4A
:100200008C8D981305C0E889F989808185FD26C009
:10021000F62E0B8D10E00F5F1F4F0F731127E02E8E
:100220008C8DE8120CC00FB607FCFACFE889F9896B
:10023000808185FFF5CFCE010E94D400F1CF8B8D58
:10024000FE01E80FF11DE35AFF4FF0829FB7F894CB
:100250000B8FEA89FB89808180620AC09FB7F8947E
:10026000EE89FF896083E889F989808183708064E1
:1002700080839FBF81E090E0DF91CF911F910F912C
:10028000FF90EF900895CF93DF93EC01888D882342
:10029000C9F0EA89FB89808185FD05C0A889B989F3
:1002A0008C9186FD0FC00FB607FCF5CF808185FFCE
:1002B000F2CFA889B9898C9185FFEDCFCE010E943C
:1002C000D400E7CFDF91CF91089580E090E0892BB3
:1002D00029F00E94CA0081110C9400000895009733
:1002E00069F0FC0101900020E9F73197AF01481B4C
:1002F000590BBC0187E396E00C945F0080E090E02E
:1003000008950E94FD03AF92BF92CF92DF92FF92B9
:100310000F931F93CF93DF93CDB7DEB7A1970FB69F
:10032000F894DEBF0FBECDBFF62E08E010E034E13A
:10033000C32E32E0D32E4CE2A42E42E0B42E8091A4
:10034000000190910101019691F41F92FF92DF92BA
:10035000CF92BF92AF920E9402048CE292E00E9480
:100360006F010F900F900F900F900F900F90809152
:100370000001909101010196909301018093000189
:10038000F69401501109D9F68FEF9FEF9093010178
:100390008093000180912A0290912B020196909304
:1003A0002B0280932A0287709927892B21F48EE1F2
:1003B00092E00E946F0180912A0290912B028F702F
:1003C0009927892BC9F58CE192E00E946F018AE19F
:1003D00092E00E946F014091280250912902405FF3
:1003E0005F4F5093290240932802052E000C660BA4
:1003F000770B19A2CE0181968A019B010F701127FC
:100400002227332724E076956795579547952A95B7
:10041000D1F701970A3014F4005D01C0095CFC01BA
:100420000083411551056105710531F70E946F0187
:100430008DE192E00E946F01A1960FB6F894DEBFA5
:100440000FBECDBFDF91CF911F910F91FF90DF9035
:10045000CF90BF90AF9008951F920F920FB60F925A
:1004600011242F933F938F939F93AF93BF938091CA
:10047000330690913406A0913506B091360630913E
:10048000320623E0230F2D3720F40196A11DB11D64
:1004900005C026E8230F0296A11DB11D2093320648
:1004A0008093330690933406A0933506B0933606B6
:1004B00080912E0690912F06A0913006B0913106C2
:1004C0000196A11DB11D80932E0690932F06A09337
:1004D0003006B0933106BF91AF919F918F913F91BC
:1004E0002F910F900FBE0F901F9018951F920F9293
:1004F0000FB60F9211242F933F934F935F936F93F7
:100500007F938F939F93AF93BF93EF93FF9387E373
:1005100096E00E94D400FF91EF91BF91AF919F911F
:100520008F917F916F915F914F913F912F910F909C
:100530000FBE0F901F9018951F920F920FB60F923B
:1005400011242F938F939F93EF93FF93E09147068E
:10055000F09148068081E0914D06F0914E0682FDB3
:1005600012C09081809150068F5F8F732091510649
:10057000821751F0E0915006F0E0E95CF94F958F59
:100580008093500601C08081FF91EF919F918F91E0
:100590002F910F900FBE0F901F901895CF93DF9360
:1005A00000D01F92CDB7DEB7789484B5826084BD49
:1005B00084B5816084BD85B5826085BD85B5816067
:1005C00085BD80916E00816080936E0010928100E5
:1005D00080918100826080938100809181008160A0
:1005E0008093810080918000816080938000809161
:1005F000B10084608093B1008091B00081608093ED
:10060000B00080917A00846080937A0080917A00B3
:10061000826080937A0080917A00816080937A0072
:1006200080917A00806880937A001092C10080E007
:10063000E4E1F1E0AEE2B2E001900D928A95E1F7DB
:1006400080E0E4E1F1E0AEE2B3E001900D928A9542
:10065000E1F782E098E09093A3038093A20320E067
:10066000E4E1F1E0AEE2B4E001900D922A95E1F709
:100670009093B3048093B20420E0E4E1F1E0AEE2B1
:10068000B5E001900D922A95E1F79093A305809330
:10069000A2059093B3058093B205E0914706F091CF
:1006A000480682E08083E0914306F0914406108280
:1006B000E0914506F0914606108210924F06E091B7
:1006C0004B06F0914C0686E08083E0914906F0915C
:1006D0004A06808180618083E0914906F0914A0654
:1006E000808188608083E0914906F0914A0680818C
:1006F00080688083E0914906F0914A0680818F7D71
:1007000080831F921F9281E292E09F938F938E01CC
:100710000F5F1F4F1F930F930E940204C8010E9496
:100720006F010F900F900F900F900F900F9000E0BF
:1007300010E098012877332783E0359527958A952F
:10074000E1F7C80187709927F801EE27F37044E0BC
:10075000F695E7954A95E1F7E20FF31F53E0EE0FA8
:10076000FF1F5A95E1F7E80FF91FEE0FFF1FE25D3B
:10077000FD4F07FF02C0608101C06181C8010E9476
:1007800083010F5F1F4F011584E0180791F60E9447
:100790006501FDCFE7E3F6E01382128288EE93E075
:1007A000A0E0B0E084839583A683B78386E091E0E0
:1007B0009183808385EC90E09587848784EC90E03A
:1007C0009787868780EC90E0918B808B81EC90E01E
:1007D000938B828B82EC90E0958B848B86EC90E0FF
:1007E000978B868B118E128E138E148E0895EE0FBA
:1007F000FF1F0590F491E02D099481E090E0F894BA
:100800000C94EC06AEE0B0E0E8E0F4E00C94C30633
:100810000D891E8986E08C831A8309838FEF9FE7F9
:100820009E838D83AE01475E5F4F6F89788DCE01C9
:1008300001960E942404EF81F885E00FF11F1082D9
:100840002E96E4E00C94DF06ABE0B0E0EAE2F4E0E0
:100850000C94B5066C017B018A01FC01178216829B
:10086000838181FFCCC1CE0101963C01F6019381C9
:10087000F70193FD859193FF81917F01882309F40E
:10088000BAC1853239F493FD859193FF81917F013F
:10089000853229F4B60190E00E941B06E7CF912C27
:1008A000212C312CFFE1F315D8F08B3279F038F49C
:1008B000803279F08332A1F4232D20611DC08D3266
:1008C00061F0803369F4232D216016C0832D82608E
:1008D000382EE32DE4603E2E2AC0F32DF8601DC0B3
:1008E00037FC2DC020ED280F2A3040F08E32B9F4AD
:1008F00036FC81C1232D2064322E19C036FE06C07D
:100900008AE0989E200D1124922E11C0EAE02E9EBE
:10091000200D1124222EF32DF0623F2E08C08C36BC
:1009200021F4832D8068382E02C0883641F4F70107
:1009300093FD859193FF81917F018111B3CF982F12
:100940009F7D9554933028F40C5F1F4F9FE399834C
:100950000DC0833631F0833771F0833509F059C00B
:1009600021C0F801808189830E5F1F4F8824839402
:10097000912C530113C02801F2E04F0E511CF801D5
:10098000A080B18036FE03C0692D70E002C06FEF19
:100990007FEFC5010E9410064C018201F32DFF7705
:1009A0003F2E16C0280122E0420E511CF801A08003
:1009B000B18036FE03C0692D70E002C06FEF7FEF9B
:1009C000C5010E9405064C01F32DF0683F2E8201FF
:1009D00033FC1BC0822D90E088169906B0F4B60156
:1009E00080E290E00E941B062A94F4CFF50137FCC8
:1009F000859137FE81915F01B60190E00E941B0650
:100A000021102A9421E0821A91088114910471F72F
:100A1000E8C0843611F0893641F5F80137FE07C089
:100A200060817181828193810C5F1F4F08C060815A
:100A30007181072E000C880B990B0E5F1F4FF32D51
:100A4000FF763F2E97FF09C0909580957095619530
:100A50007F4F8F4F9F4FF0683F2E2AE030E0A30179
:100A60000E945706882E861845C0853731F4232DFD
:100A70002F7EB22E2AE030E025C0932D997FB92E2B
:100A80008F36C1F018F4883579F0B5C0803719F089
:100A9000883721F0B0C0E92FE061BE2EB4FE0DC052
:100AA000FB2DF460BF2E09C034FE0AC0292F26603A
:100AB000B22E06C028E030E005C020E130E002C0E0
:100AC00020E132E0F801B7FE07C0608171818281C8
:100AD00093810C5F1F4F06C06081718180E090E0C0
:100AE0000E5F1F4FA3010E945706882E8618FB2D0C
:100AF000FF773F2E36FE0DC0232D2E7FA22E8914A8
:100B000058F434FE0BC032FC09C0832D8E7EA82E13
:100B100005C0B82CA32C03C0B82C01C0B92CA4FE6E
:100B20000FC0FE01E80DF11D8081803321F49A2D64
:100B3000997EA92E09C0A2FE06C0B394B39404C046
:100B40008A2D867809F0B394A3FC11C0A0FE06C0DC
:100B5000B21488F4280C922C9B180EC0B21460F4C6
:100B6000B60180E290E00E941B06B394F7CFB21466
:100B700018F42B1802C0982C212CA4FE10C0B6012A
:100B800080E390E00E941B06A2FE17C0A1FC03C0F8
:100B900088E790E002C088E590E0B6010CC08A2D9D
:100BA000867859F0A1FE02C08BE201C080E2A7FC6A
:100BB0008DE2B60190E00E941B06891438F4B6015C
:100BC00080E390E00E941B069A94F7CF8A94F30189
:100BD000E80DF11D8081B60190E00E941B06811096
:100BE000F5CF222009F442CEB60180E290E00E94C7
:100BF0001B062A94F6CFF6018681978102C08FEFFB
:100C00009FEF2B96E2E10C94D106FC010590615018
:100C100070400110D8F7809590958E0F9F1F089512
:100C2000FC016150704001900110D8F780959095BB
:100C30008E0F9F1F08950F931F93CF93DF93FB0198
:100C4000238121FD03C08FEF9FEF2CC022FF16C030
:100C500046815781248135814217530744F4A0818E
:100C6000B1819D012F5F3F4F318320838C9326817B
:100C700037812F5F3F4F3783268314C08B01EC01F0
:100C8000FB010084F185E02D0995892BE1F6D8015F
:100C900016968D919C911797019617969C938E931B
:100CA0001697CE01DF91CF911F910F910895FA0110
:100CB000AA27283051F1203181F1E8946F936E7F9B
:100CC0006E5F7F4F8F4F9F4FAF4FB1E03ED0B4E08C
:100CD0003CD0670F781F891F9A1FA11D680F791FCD
:100CE0008A1F911DA11D6A0F711D811D911DA11DDE
:100CF00020D009F468943F912AE0269F11243019EE
:100D0000305D3193DEF6CF010895462F4770405D88
:100D10004193B3E00FD0C9F7F6CF462F4F70405D37
:100D20004A3318F0495D31FD4052419302D0A9F792
:100D3000EACFB4E0A6959795879577956795BA958C
:100D4000C9F700976105710508959B01AC010A2E52
:100D500006945795479537952795BA95C9F7620F29
:100D6000731F841F951FA01D08952F923F924F92CD
:100D70005F926F927F928F929F92AF92BF92CF922B
:100D8000DF92EF92FF920F931F93CF93DF93CDB734
:100D9000DEB7CA1BDB0B0FB6F894DEBF0FBECDBFAC
:100DA00009942A88398848885F846E847D848C847D
:100DB0009B84AA84B984C884DF80EE80FD800C8186
:100DC0001B81AA81B981CE0FD11D0FB6F894DEBF69
:0C0DD0000FBECDBFED010895F894FFCFD9
:100DDC00FFFF00000000F6005F008D004301BE0025
:100DEC009C00B0000440081400000000000000004B
:100DFC00000000000440081400480012000000002D
:100E0C00000000000440081400482010810200007B
:100E1C00000000000440081400482010C10200002B
:100E2C0000000000044008140048002100000000ED
:100E3C000000000004400814000A0000000000003C
:100E4C00000000000440081402080000000000002C
:100E5C000000000004400814000000000000000026
:100E6C000000000004400814000000000000000016
:100E7C000000000004400814000000000000000006
:100E8C0000000000044008140000000000000000F6
:100E9C0000000000044008140000000000000000E6
:100EAC0000000000044008140000000000000000D6
:100EBC0000000000044008140000000000000000C6
:100ECC0000000000044008141001000000000000A5
:100EDC000000000004400814008000000000000026
:100EEC00000000002530327820000D0A003A202046
:080EFC00003030303A20000004
:00000001FF
